{
  "_format": "hh-sol-artifact-1",
  "contractName": "Assessment",
  "sourceName": "contracts/Assessment.sol",
  "abi": [
    {
      "inputs": [
        {
          "internalType": "string",
          "name": "_greeting",
          "type": "string"
        },
        {
          "internalType": "uint256",
          "name": "_number",
          "type": "uint256"
        }
      ],
      "stateMutability": "nonpayable",
      "type": "constructor"
    },
    {
      "stateMutability": "payable",
      "type": "fallback"
    },
    {
      "inputs": [
        {
          "internalType": "string",
          "name": "_additionalText",
          "type": "string"
        }
      ],
      "name": "concatenateGreeting",
      "outputs": [],
      "stateMutability": "nonpayable",
      "type": "function"
    },
    {
      "inputs": [],
      "name": "getGreeting",
      "outputs": [
        {
          "internalType": "string",
          "name": "",
          "type": "string"
        }
      ],
      "stateMutability": "view",
      "type": "function"
    },
    {
      "inputs": [],
      "name": "getNumber",
      "outputs": [
        {
          "internalType": "uint256",
          "name": "",
          "type": "uint256"
        }
      ],
      "stateMutability": "view",
      "type": "function"
    },
    {
      "inputs": [],
      "name": "greeting",
      "outputs": [
        {
          "internalType": "string",
          "name": "",
          "type": "string"
        }
      ],
      "stateMutability": "view",
      "type": "function"
    },
    {
      "inputs": [],
      "name": "number",
      "outputs": [
        {
          "internalType": "uint256",
          "name": "",
          "type": "uint256"
        }
      ],
      "stateMutability": "view",
      "type": "function"
    },
    {
      "inputs": [],
      "name": "resetGreeting",
      "outputs": [],
      "stateMutability": "nonpayable",
      "type": "function"
    },
    {
      "inputs": [],
      "name": "resetNumber",
      "outputs": [],
      "stateMutability": "nonpayable",
      "type": "function"
    },
    {
      "inputs": [
        {
          "internalType": "string",
          "name": "_newGreeting",
          "type": "string"
        }
      ],
      "name": "setGreeting",
      "outputs": [],
      "stateMutability": "nonpayable",
      "type": "function"
    },
    {
      "inputs": [
        {
          "internalType": "uint256",
          "name": "_newNumber",
          "type": "uint256"
        }
      ],
      "name": "setNumber",
      "outputs": [],
      "stateMutability": "nonpayable",
      "type": "function"
    }
  ],
  "bytecode": "0x60806040523480156200001157600080fd5b506040516200107238038062001072833981810160405281019062000037919062000226565b8160009081620000489190620004cd565b50806001819055505050620005b4565b6000604051905090565b600080fd5b600080fd5b600080fd5b600080fd5b6000601f19601f8301169050919050565b7f4e487b7100000000000000000000000000000000000000000000000000000000600052604160045260246000fd5b620000c18262000076565b810181811067ffffffffffffffff82111715620000e357620000e262000087565b5b80604052505050565b6000620000f862000058565b9050620001068282620000b6565b919050565b600067ffffffffffffffff82111562000129576200012862000087565b5b620001348262000076565b9050602081019050919050565b60005b838110156200016157808201518184015260208101905062000144565b60008484015250505050565b6000620001846200017e846200010b565b620000ec565b905082815260208101848484011115620001a357620001a262000071565b5b620001b084828562000141565b509392505050565b600082601f830112620001d057620001cf6200006c565b5b8151620001e28482602086016200016d565b91505092915050565b6000819050919050565b6200020081620001eb565b81146200020c57600080fd5b50565b6000815190506200022081620001f5565b92915050565b6000806040838503121562000240576200023f62000062565b5b600083015167ffffffffffffffff81111562000261576200026062000067565b5b6200026f85828601620001b8565b925050602062000282858286016200020f565b9150509250929050565b600081519050919050565b7f4e487b7100000000000000000000000000000000000000000000000000000000600052602260045260246000fd5b60006002820490506001821680620002df57607f821691505b602082108103620002f557620002f462000297565b5b50919050565b60008190508160005260206000209050919050565b60006020601f8301049050919050565b600082821b905092915050565b6000600883026200035f7fffffffffffffffffffffffffffffffffffffffffffffffffffffffffffffffff8262000320565b6200036b868362000320565b95508019841693508086168417925050509392505050565b6000819050919050565b6000620003ae620003a8620003a284620001eb565b62000383565b620001eb565b9050919050565b6000819050919050565b620003ca836200038d565b620003e2620003d982620003b5565b8484546200032d565b825550505050565b600090565b620003f9620003ea565b62000406818484620003bf565b505050565b5b818110156200042e5762000422600082620003ef565b6001810190506200040c565b5050565b601f8211156200047d576200044781620002fb565b620004528462000310565b8101602085101562000462578190505b6200047a620004718562000310565b8301826200040b565b50505b505050565b600082821c905092915050565b6000620004a26000198460080262000482565b1980831691505092915050565b6000620004bd83836200048f565b9150826002028217905092915050565b620004d8826200028c565b67ffffffffffffffff811115620004f457620004f362000087565b5b620005008254620002c6565b6200050d82828562000432565b600060209050601f83116001811462000545576000841562000530578287015190505b6200053c8582620004af565b865550620005ac565b601f1984166200055586620002fb565b60005b828110156200057f5784890151825560018201915060208501945060208101905062000558565b868310156200059f57848901516200059b601f8916826200048f565b8355505b6001600288020188555050505b505050505050565b610aae80620005c46000396000f3fe60806040526004361061008a5760003560e01c80638381f58a116100595780638381f58a1461010d578063a413686214610138578063ef690cc014610161578063f2c9ecd81461018c578063fe50cc72146101b75761008b565b80633fb5c1cb1461008d5780634cbf9e31146100b65780635035df81146100cd57806361154653146100e45761008b565b5b005b34801561009957600080fd5b506100b460048036038101906100af91906103d9565b6101e2565b005b3480156100c257600080fd5b506100cb6101ec565b005b3480156100d957600080fd5b506100e261020d565b005b3480156100f057600080fd5b5061010b6004803603810190610106919061054c565b610217565b005b34801561011957600080fd5b5061012261024c565b60405161012f91906105a4565b60405180910390f35b34801561014457600080fd5b5061015f600480360381019061015a919061054c565b610252565b005b34801561016d57600080fd5b50610176610265565b604051610183919061063e565b60405180910390f35b34801561019857600080fd5b506101a16102f3565b6040516101ae91906105a4565b60405180910390f35b3480156101c357600080fd5b506101cc6102fd565b6040516101d9919061063e565b60405180910390f35b8060018190555050565b604051806020016040528060008152506000908161020a919061086c565b50565b6000600181905550565b60008160405160200161022b929190610a49565b60405160208183030381529060405260009081610248919061086c565b5050565b60015481565b8060009081610261919061086c565b5050565b600080546102729061068f565b80601f016020809104026020016040519081016040528092919081815260200182805461029e9061068f565b80156102eb5780601f106102c0576101008083540402835291602001916102eb565b820191906000526020600020905b8154815290600101906020018083116102ce57829003601f168201915b505050505081565b6000600154905090565b60606000805461030c9061068f565b80601f01602080910402602001604051908101604052809291908181526020018280546103389061068f565b80156103855780601f1061035a57610100808354040283529160200191610385565b820191906000526020600020905b81548152906001019060200180831161036857829003601f168201915b5050505050905090565b6000604051905090565b600080fd5b600080fd5b6000819050919050565b6103b6816103a3565b81146103c157600080fd5b50565b6000813590506103d3816103ad565b92915050565b6000602082840312156103ef576103ee610399565b5b60006103fd848285016103c4565b91505092915050565b600080fd5b600080fd5b6000601f19601f8301169050919050565b7f4e487b7100000000000000000000000000000000000000000000000000000000600052604160045260246000fd5b61045982610410565b810181811067ffffffffffffffff8211171561047857610477610421565b5b80604052505050565b600061048b61038f565b90506104978282610450565b919050565b600067ffffffffffffffff8211156104b7576104b6610421565b5b6104c082610410565b9050602081019050919050565b82818337600083830152505050565b60006104ef6104ea8461049c565b610481565b90508281526020810184848401111561050b5761050a61040b565b5b6105168482856104cd565b509392505050565b600082601f83011261053357610532610406565b5b81356105438482602086016104dc565b91505092915050565b60006020828403121561056257610561610399565b5b600082013567ffffffffffffffff8111156105805761057f61039e565b5b61058c8482850161051e565b91505092915050565b61059e816103a3565b82525050565b60006020820190506105b96000830184610595565b92915050565b600081519050919050565b600082825260208201905092915050565b60005b838110156105f95780820151818401526020810190506105de565b60008484015250505050565b6000610610826105bf565b61061a81856105ca565b935061062a8185602086016105db565b61063381610410565b840191505092915050565b600060208201905081810360008301526106588184610605565b905092915050565b7f4e487b7100000000000000000000000000000000000000000000000000000000600052602260045260246000fd5b600060028204905060018216806106a757607f821691505b6020821081036106ba576106b9610660565b5b50919050565b60008190508160005260206000209050919050565b60006020601f8301049050919050565b600082821b905092915050565b6000600883026107227fffffffffffffffffffffffffffffffffffffffffffffffffffffffffffffffff826106e5565b61072c86836106e5565b95508019841693508086168417925050509392505050565b6000819050919050565b600061076961076461075f846103a3565b610744565b6103a3565b9050919050565b6000819050919050565b6107838361074e565b61079761078f82610770565b8484546106f2565b825550505050565b600090565b6107ac61079f565b6107b781848461077a565b505050565b5b818110156107db576107d06000826107a4565b6001810190506107bd565b5050565b601f821115610820576107f1816106c0565b6107fa846106d5565b81016020851015610809578190505b61081d610815856106d5565b8301826107bc565b50505b505050565b600082821c905092915050565b600061084360001984600802610825565b1980831691505092915050565b600061085c8383610832565b9150826002028217905092915050565b610875826105bf565b67ffffffffffffffff81111561088e5761088d610421565b5b610898825461068f565b6108a38282856107df565b600060209050601f8311600181146108d657600084156108c4578287015190505b6108ce8582610850565b865550610936565b601f1984166108e4866106c0565b60005b8281101561090c578489015182556001820191506020850194506020810190506108e7565b868310156109295784890151610925601f891682610832565b8355505b6001600288020188555050505b505050505050565b600081905092915050565b600081546109568161068f565b610960818661093e565b9450600182166000811461097b5760018114610990576109c3565b60ff19831686528115158202860193506109c3565b610999856106c0565b60005b838110156109bb5781548189015260018201915060208101905061099c565b838801955050505b50505092915050565b7f2000000000000000000000000000000000000000000000000000000000000000600082015250565b6000610a0260018361093e565b9150610a0d826109cc565b600182019050919050565b6000610a23826105bf565b610a2d818561093e565b9350610a3d8185602086016105db565b80840191505092915050565b6000610a558285610949565b9150610a60826109f5565b9150610a6c8284610a18565b9150819050939250505056fea2646970667358221220484c4044eb591af0ddc85e32a7ac85cf0d59273de173b52858102d29eccc80a264736f6c63430008110033",
  "linkReferences": {},
  "deployedLinkReferences": {}
}